{
  "_format": "hh-sol-artifact-1",
  "contractName": "CoinFlip",
  "sourceName": "contracts/CoinFlip.sol",
  "abi": [
    {
      "inputs": [],
      "stateMutability": "nonpayable",
      "type": "constructor"
    },
    {
      "anonymous": false,
      "inputs": [
        {
          "indexed": true,
          "internalType": "address",
          "name": "player",
          "type": "address"
        },
        {
          "indexed": false,
          "internalType": "bool",
          "name": "win",
          "type": "bool"
        },
        {
          "indexed": false,
          "internalType": "uint256",
          "name": "amount",
          "type": "uint256"
        }
      ],
      "name": "FlipResult",
      "type": "event"
    },
    {
      "inputs": [],
      "name": "fee",
      "outputs": [
        {
          "internalType": "uint256",
          "name": "",
          "type": "uint256"
        }
      ],
      "stateMutability": "view",
      "type": "function"
    },
    {
      "inputs": [
        {
          "internalType": "bool",
          "name": "_side",
          "type": "bool"
        }
      ],
      "name": "flipCoin",
      "outputs": [
        {
          "internalType": "bool",
          "name": "",
          "type": "bool"
        }
      ],
      "stateMutability": "payable",
      "type": "function"
    },
    {
      "inputs": [],
      "name": "owner",
      "outputs": [
        {
          "internalType": "address",
          "name": "",
          "type": "address"
        }
      ],
      "stateMutability": "view",
      "type": "function"
    },
    {
      "inputs": [],
      "name": "withdraw",
      "outputs": [],
      "stateMutability": "nonpayable",
      "type": "function"
    }
  ],
  "bytecode": "0x6080604052662386f26fc1000060015534801561001b57600080fd5b50336000806101000a81548173ffffffffffffffffffffffffffffffffffffffff021916908373ffffffffffffffffffffffffffffffffffffffff1602179055506107d78061006b6000396000f3fe60806040526004361061003f5760003560e01c80633ccfd60b146100445780637b8ff38f1461005b5780638da5cb5b1461008b578063ddca3f43146100b6575b600080fd5b34801561005057600080fd5b506100596100e1565b005b610075600480360381019061007091906103fd565b610221565b6040516100829190610439565b60405180910390f35b34801561009757600080fd5b506100a0610396565b6040516100ad9190610495565b60405180910390f35b3480156100c257600080fd5b506100cb6103ba565b6040516100d891906104c9565b60405180910390f35b60008054906101000a900473ffffffffffffffffffffffffffffffffffffffff1673ffffffffffffffffffffffffffffffffffffffff163373ffffffffffffffffffffffffffffffffffffffff161461016f576040517f08c379a000000000000000000000000000000000000000000000000000000000815260040161016690610541565b60405180910390fd5b6000479050600081116101b7576040517f08c379a00000000000000000000000000000000000000000000000000000000081526004016101ae906105ad565b60405180910390fd5b60008054906101000a900473ffffffffffffffffffffffffffffffffffffffff1673ffffffffffffffffffffffffffffffffffffffff166108fc829081150290604051600060405180830381858888f1935050505015801561021d573d6000803e3d6000fd5b5050565b6000600154341015610268576040517f08c379a000000000000000000000000000000000000000000000000000000000815260040161025f90610619565b60405180910390fd5b6000806002426102789190610668565b1490508215158115150361033a57600060023461029591906106c8565b90503373ffffffffffffffffffffffffffffffffffffffff166108fc829081150290604051600060405180830381858888f193505050501580156102dd573d6000803e3d6000fd5b503373ffffffffffffffffffffffffffffffffffffffff167f1f2ff94143ec2e58ace01e22de3975718247435e2d23d05b66eb402230d8281e60018360405161032792919061070a565b60405180910390a2600192505050610391565b3373ffffffffffffffffffffffffffffffffffffffff167f1f2ff94143ec2e58ace01e22de3975718247435e2d23d05b66eb402230d8281e600080604051610383929190610778565b60405180910390a260009150505b919050565b60008054906101000a900473ffffffffffffffffffffffffffffffffffffffff1681565b60015481565b600080fd5b60008115159050919050565b6103da816103c5565b81146103e557600080fd5b50565b6000813590506103f7816103d1565b92915050565b600060208284031215610413576104126103c0565b5b6000610421848285016103e8565b91505092915050565b610433816103c5565b82525050565b600060208201905061044e600083018461042a565b92915050565b600073ffffffffffffffffffffffffffffffffffffffff82169050919050565b600061047f82610454565b9050919050565b61048f81610474565b82525050565b60006020820190506104aa6000830184610486565b92915050565b6000819050919050565b6104c3816104b0565b82525050565b60006020820190506104de60008301846104ba565b92915050565b600082825260208201905092915050565b7f4f6e6c7920746865206f776e65722063616e2077697468647261770000000000600082015250565b600061052b601b836104e4565b9150610536826104f5565b602082019050919050565b6000602082019050818103600083015261055a8161051e565b9050919050565b7f4e6f2066756e647320617661696c61626c6520746f2077697468647261770000600082015250565b6000610597601e836104e4565b91506105a282610561565b602082019050919050565b600060208201905081810360008301526105c68161058a565b9050919050565b7f496e73756666696369656e742066656500000000000000000000000000000000600082015250565b60006106036010836104e4565b915061060e826105cd565b602082019050919050565b60006020820190508181036000830152610632816105f6565b9050919050565b7f4e487b7100000000000000000000000000000000000000000000000000000000600052601260045260246000fd5b6000610673826104b0565b915061067e836104b0565b92508261068e5761068d610639565b5b828206905092915050565b7f4e487b7100000000000000000000000000000000000000000000000000000000600052601160045260246000fd5b60006106d3826104b0565b91506106de836104b0565b92508282026106ec816104b0565b9150828204841483151761070357610702610699565b5b5092915050565b600060408201905061071f600083018561042a565b61072c60208301846104ba565b9392505050565b6000819050919050565b6000819050919050565b600061076261075d61075884610733565b61073d565b6104b0565b9050919050565b61077281610747565b82525050565b600060408201905061078d600083018561042a565b61079a6020830184610769565b939250505056fea2646970667358221220ba92440c589538bc0d79ecf74dce5b66c87c812311934e3244b822a79663e44964736f6c63430008120033",
  "linkReferences": {},
  "deployedLinkReferences": {}
}